{
  "contractName": "DecentRandom",
  "abi": [
    {
      "inputs": [],
      "payable": false,
      "stateMutability": "nonpayable",
      "type": "constructor"
    },
    {
      "constant": false,
      "inputs": [],
      "name": "getRandom",
      "outputs": [
        {
          "name": "decentRandom",
          "type": "uint256"
        }
      ],
      "payable": false,
      "stateMutability": "nonpayable",
      "type": "function"
    },
    {
      "constant": false,
      "inputs": [
        {
          "name": "limit",
          "type": "uint256"
        }
      ],
      "name": "getRandomLimit",
      "outputs": [
        {
          "name": "decentRandom",
          "type": "uint256"
        }
      ],
      "payable": false,
      "stateMutability": "nonpayable",
      "type": "function"
    },
    {
      "constant": false,
      "inputs": [
        {
          "name": "_payto",
          "type": "address"
        }
      ],
      "name": "cashout",
      "outputs": [],
      "payable": false,
      "stateMutability": "nonpayable",
      "type": "function"
    }
  ],
  "bytecode": "0x608060405234801561001057600080fd5b50336000806101000a81548173ffffffffffffffffffffffffffffffffffffffff021916908373ffffffffffffffffffffffffffffffffffffffff16021790555060014303404144604051602001808481526020018373ffffffffffffffffffffffffffffffffffffffff1673ffffffffffffffffffffffffffffffffffffffff166c01000000000000000000000000028152601401828152602001935050505060405160208183030381529060405280519060200120600190046001819055506102cf806100e06000396000f3fe608060405260043610610057576000357c0100000000000000000000000000000000000000000000000000000000900463ffffffff1680633f3ccbc11461005c5780634846ff7e146100ab578063aacc5a17146100fc575b600080fd5b34801561006857600080fd5b506100956004803603602081101561007f57600080fd5b8101908080359060200190929190505050610127565b6040518082815260200191505060405180910390f35b3480156100b757600080fd5b506100fa600480360360208110156100ce57600080fd5b81019080803573ffffffffffffffffffffffffffffffffffffffff169060200190929190505050610143565b005b34801561010857600080fd5b506101116101ff565b6040518082815260200191505060405180910390f35b6000816101326101ff565b81151561013b57fe5b069050919050565b6000809054906101000a900473ffffffffffffffffffffffffffffffffffffffff1673ffffffffffffffffffffffffffffffffffffffff163373ffffffffffffffffffffffffffffffffffffffff1614151561019e57600080fd5b8073ffffffffffffffffffffffffffffffffffffffff166108fc3073ffffffffffffffffffffffffffffffffffffffff16319081150290604051600060405180830381858888f193505050501580156101fb573d6000803e3d6000fd5b5050565b60006001546001603f60015481151561021457fe5b06014303404144604051602001808581526020018481526020018373ffffffffffffffffffffffffffffffffffffffff1673ffffffffffffffffffffffffffffffffffffffff166c01000000000000000000000000028152601401828152602001945050505050604051602081830303815290604052805190602001206001900460018190555060015490509056fea165627a7a7230582083b50199b15d45dd463d4e5882a414fa921f4c6a94a872dc55edcaa676dea8340029",
  "source": "pragma solidity 0.5.0;\n\ncontract DecentRandom{\n    address owner;\n    uint256 randomSeed;\n    \n    constructor() public{\n        owner = msg.sender;\n        \n        randomSeed = uint256(keccak256(abi.encodePacked(\n            blockhash(block.number - 1),\n            block.coinbase,\n            block.difficulty)));\n    }\n    \n    //Return a decent random uint256 \n    function getRandom() public returns(uint256 decentRandom ){\n        randomSeed = uint256(keccak256(abi.encodePacked(\n            randomSeed,\n            blockhash(block.number - ((randomSeed % 63) + 1)), //must choose at least 1 block before this one.\n            block.coinbase,\n            block.difficulty)));\n        return randomSeed;\n    }\n\n    //get a random number within a limit\n    function getRandomLimit(uint limit) public returns (uint256 decentRandom){\n        return getRandom() % limit;\n    }\n    \n    //dont send ETH to this address, but in case you do we can cashout.\n    function cashout(address payable _payto) public {\n     require(msg.sender == owner);\n     _payto.transfer(address(this).balance);\n    }\n}\n",
  "sourcePath": "/home/jsch/Desktop/superRandom/contracts/DecentRandom.sol",
  "compiler": {
    "name": "solc",
    "version": "0.5.0+commit.1d4f565a.Emscripten.clang"
  },
  "schemaVersion": "3.0.2",
  "updatedAt": "2019-02-17T02:09:47.399Z",
  "devdoc": {
    "methods": {}
  },
  "userdoc": {
    "methods": {}
  }
}