{
  "contractName": "DecentRandom",
  "abi": [
    {
      "constant": false,
      "inputs": [],
      "name": "initialize",
      "outputs": [],
      "payable": false,
      "stateMutability": "nonpayable",
      "type": "function"
    },
    {
      "constant": false,
      "inputs": [],
      "name": "getRandom",
      "outputs": [
        {
          "name": "decentRandom",
          "type": "uint256"
        }
      ],
      "payable": false,
      "stateMutability": "nonpayable",
      "type": "function"
    },
    {
      "constant": false,
      "inputs": [
        {
          "name": "limit",
          "type": "uint256"
        }
      ],
      "name": "getRandomLimit",
      "outputs": [
        {
          "name": "decentRandom",
          "type": "uint256"
        }
      ],
      "payable": false,
      "stateMutability": "nonpayable",
      "type": "function"
    },
    {
      "constant": false,
      "inputs": [
        {
          "name": "_payto",
          "type": "address"
        }
      ],
      "name": "cashout",
      "outputs": [],
      "payable": false,
      "stateMutability": "nonpayable",
      "type": "function"
    }
  ],
  "bytecode": "0x608060405234801561001057600080fd5b506104f9806100206000396000f3fe608060405260043610610062576000357c0100000000000000000000000000000000000000000000000000000000900463ffffffff1680633f3ccbc1146100675780634846ff7e146100b65780638129fc1c14610107578063aacc5a171461011e575b600080fd5b34801561007357600080fd5b506100a06004803603602081101561008a57600080fd5b8101908080359060200190929190505050610149565b6040518082815260200191505060405180910390f35b3480156100c257600080fd5b50610105600480360360208110156100d957600080fd5b81019080803573ffffffffffffffffffffffffffffffffffffffff169060200190929190505050610165565b005b34801561011357600080fd5b5061011c610222565b005b34801561012a57600080fd5b50610133610418565b6040518082815260200191505060405180910390f35b600081610154610418565b81151561015d57fe5b069050919050565b603360009054906101000a900473ffffffffffffffffffffffffffffffffffffffff1673ffffffffffffffffffffffffffffffffffffffff163373ffffffffffffffffffffffffffffffffffffffff161415156101c157600080fd5b8073ffffffffffffffffffffffffffffffffffffffff166108fc3073ffffffffffffffffffffffffffffffffffffffff16319081150290604051600060405180830381858888f1935050505015801561021e573d6000803e3d6000fd5b5050565b600060019054906101000a900460ff168061024157506102406104bc565b5b8061025857506000809054906101000a900460ff16155b15156102f2576040517f08c379a000000000000000000000000000000000000000000000000000000000815260040180806020018281038252602e8152602001807f436f6e747261637420696e7374616e63652068617320616c726561647920626581526020017f656e20696e697469616c697a656400000000000000000000000000000000000081525060400191505060405180910390fd5b60008060019054906101000a900460ff1690506001600060016101000a81548160ff02191690831515021790555060016000806101000a81548160ff02191690831515021790555033603360006101000a81548173ffffffffffffffffffffffffffffffffffffffff021916908373ffffffffffffffffffffffffffffffffffffffff16021790555060014303404144604051602001808481526020018373ffffffffffffffffffffffffffffffffffffffff1673ffffffffffffffffffffffffffffffffffffffff166c010000000000000000000000000281526014018281526020019350505050604051602081830303815290604052805190602001206001900460348190555080600060016101000a81548160ff02191690831515021790555050565b60006034546001603f60345481151561042d57fe5b06014303404144604051602001808581526020018481526020018373ffffffffffffffffffffffffffffffffffffffff1673ffffffffffffffffffffffffffffffffffffffff166c010000000000000000000000000281526014018281526020019450505050506040516020818303038152906040528051906020012060019004603481905550603454905090565b600080303b9050600081149150509056fea165627a7a723058207f31f5c4eb23df8fb6ca88c49736a5610fd791dcaa70cb0dd2cf9e7c54fc6b860029",
  "source": "pragma solidity 0.5.0;\n\nimport \"zos-lib/contracts/Initializable.sol\";\n\ncontract DecentRandom is Initializable{\n    address owner;\n    uint256 randomSeed;\n\n    function initialize() initializer public{\n        owner = msg.sender;\n\n        randomSeed = uint256(keccak256(abi.encodePacked(\n            blockhash(block.number - 1),\n            block.coinbase,\n            block.difficulty)));\n    }\n\n    //Return a decent random uint256\n    function getRandom() public returns(uint256 decentRandom ){\n        randomSeed = uint256(keccak256(abi.encodePacked(\n            randomSeed,\n            blockhash(block.number - ((randomSeed % 63) + 1)), //must choose at least 1 block before this one.\n            block.coinbase,\n            block.difficulty)));\n        return randomSeed;\n    }\n\n    //get a random number within a limit\n    function getRandomLimit(uint limit) public returns (uint256 decentRandom){\n        return getRandom() % limit;\n    }\n\n    //dont send ETH to this address, but in case you do we can cashout.\n    function cashout(address payable _payto) public {\n     require(msg.sender == owner);\n     _payto.transfer(address(this).balance);\n    }\n}\n",
  "sourcePath": "/home/jsch/Desktop/superRandom/contracts/DecentRandom.sol",
  "compiler": {
    "name": "solc",
    "version": "0.5.0+commit.1d4f565a.Emscripten.clang"
  },
  "schemaVersion": "3.0.2",
  "updatedAt": "2019-02-17T03:25:58.986Z",
  "devdoc": {
    "methods": {}
  },
  "userdoc": {
    "methods": {}
  }
}