{
  "contractName": "UltraRandom",
  "abi": [
    {
      "anonymous": false,
      "inputs": [
        {
          "indexed": false,
          "name": "_id1",
          "type": "uint256"
        },
        {
          "indexed": false,
          "name": "_id2",
          "type": "uint256"
        },
        {
          "indexed": false,
          "name": "_ready_block",
          "type": "uint256"
        },
        {
          "indexed": false,
          "name": "_asker",
          "type": "address"
        }
      ],
      "name": "PendingRando",
      "type": "event"
    },
    {
      "anonymous": false,
      "inputs": [
        {
          "indexed": false,
          "name": "randomNum",
          "type": "uint256"
        },
        {
          "indexed": false,
          "name": "usedId1",
          "type": "uint256"
        },
        {
          "indexed": false,
          "name": "usedId2",
          "type": "uint256"
        },
        {
          "indexed": false,
          "name": "thisId",
          "type": "uint256"
        }
      ],
      "name": "RandomOut",
      "type": "event"
    },
    {
      "constant": false,
      "inputs": [
        {
          "name": "offset1",
          "type": "uint8"
        },
        {
          "name": "offset2",
          "type": "uint8"
        }
      ],
      "name": "initialize",
      "outputs": [],
      "payable": false,
      "stateMutability": "nonpayable",
      "type": "function"
    },
    {
      "constant": false,
      "inputs": [
        {
          "name": "_ready_block_offset",
          "type": "uint256"
        },
        {
          "name": "id1",
          "type": "uint256"
        },
        {
          "name": "id2",
          "type": "uint256"
        }
      ],
      "name": "putRandom",
      "outputs": [],
      "payable": true,
      "stateMutability": "payable",
      "type": "function"
    },
    {
      "constant": false,
      "inputs": [
        {
          "name": "id",
          "type": "uint256"
        }
      ],
      "name": "pullRandom",
      "outputs": [],
      "payable": false,
      "stateMutability": "nonpayable",
      "type": "function"
    },
    {
      "constant": false,
      "inputs": [
        {
          "name": "_payto",
          "type": "address"
        }
      ],
      "name": "cashout",
      "outputs": [],
      "payable": false,
      "stateMutability": "nonpayable",
      "type": "function"
    }
  ],
  "bytecode": "0x608060405234801561001057600080fd5b50610c9d806100206000396000f3fe608060405260043610610062576000357c0100000000000000000000000000000000000000000000000000000000900463ffffffff16806307a15c88146100675780630c555bac146100a2578063401bc76d146100e45780634846ff7e1461012f575b600080fd5b34801561007357600080fd5b506100a06004803603602081101561008a57600080fd5b8101908080359060200190929190505050610180565b005b6100e2600480360360608110156100b857600080fd5b81019080803590602001909291908035906020019092919080359060200190929190505050610485565b005b3480156100f057600080fd5b5061012d6004803603604081101561010757600080fd5b81019080803560ff169060200190929190803560ff169060200190929190505050610667565b005b34801561013b57600080fd5b5061017e6004803603602081101561015257600080fd5b81019080803573ffffffffffffffffffffffffffffffffffffffff169060200190929190505050610b05565b005b600115156036600083815260200190815260200160002060040160009054906101000a900460ff1615151415156101b657600080fd5b436036600083815260200190815260200160002060030154111515156101db57600080fd5b600060366000838152602001908152602001600020600301541415151561020157600080fd5b600060366000838152602001908152602001600020600501541415151561022757600080fd5b60006036600083815260200190815260200160002060050154905060006102996034546036600086815260200190815260200160002060010154603660008681526020019081526020016000206001015460366000888152602001908152602001600020600301544060019004610bc2565b90506102a3610c22565b60c06040519081016040528060345481526020018381526020016036600087815260200190815260200160002060020160009054906101000a900473ffffffffffffffffffffffffffffffffffffffff1673ffffffffffffffffffffffffffffffffffffffff168152602001600081526020016000151581526020016000815250905080603660006034548152602001908152602001600020600082015181600001556020820151816001015560408201518160020160006101000a81548173ffffffffffffffffffffffffffffffffffffffff021916908373ffffffffffffffffffffffffffffffffffffffff1602179055506060820151816003015560808201518160040160006101000a81548160ff02191690831515021790555060a082015181600501559050507f3245ca4986944e166be3eedd5f7f8ae265c824c1d58000b6f284d489c25917688285856034546040518085815260200184815260200183815260200182815260200194505050505060405180910390a160016034540160348190555060003390508073ffffffffffffffffffffffffffffffffffffffff166108fc660e35fa931a00009081150290604051600060405180830381858888f1935050505015801561047d573d6000803e3d6000fd5b505050505050565b60048311151561049457600080fd5b6611c37937e08000341415156104a957600080fd5b600015156036600084815260200190815260200160002060040160009054906101000a900460ff1615151415156104df57600080fd5b600015156036600083815260200190815260200160002060040160009054906101000a900460ff16151514151561051557600080fd5b60016036600084815260200190815260200160002060040160006101000a81548160ff0219169083151502179055508060366000848152602001908152602001600020600501819055504383016036600084815260200190815260200160002060030181905550336036600084815260200190815260200160002060020160006101000a81548173ffffffffffffffffffffffffffffffffffffffff021916908373ffffffffffffffffffffffffffffffffffffffff1602179055507fe0df0f177511eca18b13a6caad89ab60512cbf14bbfcbfcc9e67cf33d66a13d28282603660008681526020019081526020016000206003015433604051808581526020018481526020018381526020018273ffffffffffffffffffffffffffffffffffffffff1673ffffffffffffffffffffffffffffffffffffffff16815260200194505050505060405180910390a1505050565b600060019054906101000a900460ff16806106865750610685610c11565b5b8061069d57506000809054906101000a900460ff16155b1515610737576040517f08c379a000000000000000000000000000000000000000000000000000000000815260040180806020018281038252602e8152602001807f436f6e747261637420696e7374616e63652068617320616c726561647920626581526020017f656e20696e697469616c697a656400000000000000000000000000000000000081525060400191505060405180910390fd5b60008060019054906101000a900460ff1690506001600060016101000a81548160ff02191690831515021790555060016000806101000a81548160ff02191690831515021790555033603360006101000a81548173ffffffffffffffffffffffffffffffffffffffff021916908373ffffffffffffffffffffffffffffffffffffffff160217905550600160348190555060008360ff164303404144604051602001808481526020018373ffffffffffffffffffffffffffffffffffffffff1673ffffffffffffffffffffffffffffffffffffffff166c0100000000000000000000000002815260140182815260200193505050506040516020818303038152906040528051906020012060019004905060008360ff164303404144604051602001808481526020018373ffffffffffffffffffffffffffffffffffffffff1673ffffffffffffffffffffffffffffffffffffffff166c010000000000000000000000000281526014018281526020019350505050604051602081830303815290604052805190602001206001900490506108d0610c22565b60c06040519081016040528060345481526020018481526020013373ffffffffffffffffffffffffffffffffffffffff1681526020018760ff16430181526020016000151581526020016002815250905080603660006034548152602001908152602001600020600082015181600001556020820151816001015560408201518160020160006101000a81548173ffffffffffffffffffffffffffffffffffffffff021916908373ffffffffffffffffffffffffffffffffffffffff1602179055506060820151816003015560808201518160040160006101000a81548160ff02191690831515021790555060a082015181600501559050506001603454016034819055506109dd610c22565b60c06040519081016040528060345481526020018481526020013373ffffffffffffffffffffffffffffffffffffffff1681526020018760ff16430181526020016000151581526020016001815250905080603660006034548152602001908152602001600020600082015181600001556020820151816001015560408201518160020160006101000a81548173ffffffffffffffffffffffffffffffffffffffff021916908373ffffffffffffffffffffffffffffffffffffffff1602179055506060820151816003015560808201518160040160006101000a81548160ff02191690831515021790555060a082015181600501559050506001603454016034819055505050505080600060016101000a81548160ff021916908315150217905550505050565b603360009054906101000a900473ffffffffffffffffffffffffffffffffffffffff1673ffffffffffffffffffffffffffffffffffffffff163373ffffffffffffffffffffffffffffffffffffffff16141515610b6157600080fd5b8073ffffffffffffffffffffffffffffffffffffffff166108fc3073ffffffffffffffffffffffffffffffffffffffff16319081150290604051600060405180830381858888f19350505050158015610bbe573d6000803e3d6000fd5b5050565b6000848484846040516020018085815260200184815260200183815260200182815260200194505050505060405160208183030381529060405280519060200120600190049050949350505050565b600080303b90506000811491505090565b60c0604051908101604052806000815260200160008152602001600073ffffffffffffffffffffffffffffffffffffffff1681526020016000815260200160001515815260200160008152509056fea165627a7a72305820301b85707af0592f7be5094f3e6bf78910cd843df2fbb997321e44777beb9d250029",
  "source": "pragma solidity 0.5.0;\n\nimport \"zos-lib/contracts/Initializable.sol\";\n\ncontract UltraRandom is Initializable {\n    address owner;\n    uint once;\n\n    event PendingRando(uint _id1, uint _id2, uint _ready_block, address _asker);\n\n    event RandomOut(uint randomNum, uint usedId1, uint usedId2, uint thisId);\n\n    struct Rando{\n            uint id;\n            uint randomNum;\n            address asker; //the person asking for a random number\n            uint ready_block;\n            bool pending;\n            uint mixWithId;\n        }\n\n    uint[] pendingRandos;\n    mapping(uint256 => Rando) randos;\n    mapping(address => uint) readyRandoms;\n\n    function initialize(uint8 offset1, uint8 offset2) initializer public {\n\n        owner = msg.sender;\n        once = 1;\n\n        uint randomSeed1 = uint256(keccak256(abi.encodePacked(\n            blockhash(block.number - offset1),\n            block.coinbase,\n            block.difficulty)));\n\n        uint randomSeed2 = uint256(keccak256(abi.encodePacked(\n            blockhash(block.number - offset2),\n            block.coinbase,\n            block.difficulty)));\n        //create the first two randos myself\n        Rando memory rando1 = Rando(once, randomSeed1, msg.sender, block.number + offset1, false, 2);\n        randos[once] = rando1;\n        once = once + 1;\n        Rando memory rando2 = Rando(once, randomSeed2, msg.sender, block.number + offset2, false, 1);\n        randos[once] = rando2;\n        once = once + 1;\n    }\n\n    //you want a random number, call this and we'll get back to you in some number of blocks\n    //save a reference to a rando that we can get a radnom number from at the ready block\n    //same as the breed function in CK\n    function putRandom(uint _ready_block_offset, uint id1, uint id2) public payable{\n       require(_ready_block_offset > 4); //user input can't be right away. 1 minute average.\n       require(msg.value == 0.005 ether); //this fee goes to the rando hunter\n\n        //neither Randos can be waiting\n        require(randos[id1].pending == false);\n        require(randos[id2].pending == false);\n\n        //this rando is pending.\n        //user sets a future block that they agree to use in the random hash\n        randos[id1].pending = true;\n        randos[id1].mixWithId = id2;\n        randos[id1].ready_block = _ready_block_offset + block.number;\n        randos[id1].asker = msg.sender;\n\n       //emit pending Randos so its easy findable by the hunters.\n       emit PendingRando(id1, id2, randos[id1].ready_block, msg.sender);\n\n    }\n\n    //hunted by rando hunter. Anyone can call this\n    //same as the givebirth function in CK\n    //set random\n    function pullRandom(uint id) public{\n        require(randos[id].pending == true); //require that this Rando is waiting to get pulled\n        require(randos[id].ready_block <= block.number);//its ready\n        require(randos[id].ready_block != 0);\n        require(randos[id].mixWithId != 0);\n\n        uint mixedid = randos[id].mixWithId;\n        uint newrandom = getRandom(\n            once,\n            randos[id].randomNum,\n            randos[mixedid].randomNum,\n            uint256(blockhash(randos[id].ready_block))\n          );\n\n        Rando memory instance = Rando(once, newrandom, randos[id].asker, 0, false, 0);\n        randos[once] = instance;\n        //emit the new random number and the things used to create it.\n        emit RandomOut(newrandom, id, mixedid, once);\n        once = once + 1;\n        //asker (or anyone else) can see the new random number in the new Rando object.\n\n        //TODO return this random somehow\n        //pay hunter\n        address payable _payto = msg.sender;\n        _payto.transfer(0.004 ether);\n\n    }\n\n    function getRandom(uint _once, uint _seed1, uint _seed2, uint _blockhash) internal pure returns(uint256 randomNum){\n        return uint256(keccak256(abi.encodePacked(_once, _seed1, _seed2, _blockhash)));//TODO add blockhash\n    }\n\n    function cashout(address payable _payto) public {\n     require(msg.sender == owner);\n     _payto.transfer(address(this).balance);\n    }\n\n}\n",
  "sourcePath": "/home/jsch/Desktop/superRandom/contracts/UltraRandom.sol",
  "compiler": {
    "name": "solc",
    "version": "0.5.0+commit.1d4f565a.Emscripten.clang"
  },
  "schemaVersion": "3.0.2",
  "updatedAt": "2019-02-17T03:25:58.997Z",
  "devdoc": {
    "methods": {}
  },
  "userdoc": {
    "methods": {}
  }
}